:100B0D00120E72120EBD8F2CE52C64016003020BC8
:100B1D00D0E52B70047F0180027F008F2BAC26E483
:100B2D00120A817B0A7AD77923783C1208F8C0041F
:100B3D00C005C006C007AC24E4120A81D003D00260
:100B4D00D001D0001208078F2A8E298D288C27E41A
:100B5D00FFFE7D207C41AB2AAA29A928A8271209CE
:100B6D00FE7006C2A7C2A6C2A5E4FFFE7D247C418D
:100B7D00AB2AAA29A928A8271209FE60025018E459
:100B8D00FFFE7D1C7C41AB2AAA29A928A8271209A2
:100B9D00FE4004C2A7C2A6E4FFFE7D287C41AB2A1D
:100BAD00AA29A928A8271209FE60025016E4FFFE03
:100BBD007D187C41AB2AAA29A928A8271209FE4035
:100BCD0002C2A7E52575F00A84FD7C007F01120E97
:100BDD00B4E52575F00A84E5F0FD7C007F02120E68
:100BED00B47D0B7C007F03120EB4E52475F00A84EE
:100BFD00FD7C007F04120EB4E52475F00A84E5F047
:100C0D00FD7C007F05120EB47D0B7C007F06120E5D
:100C1D00B4E52675F00A84FD7C007F07120EB4E55D
:100C2D002675F00A84E5F0FD7C007F08120EB4E510
:100C3D002C64026003020B10F525F524F526F52A28
:0F0C4D00F529F528F527D2A7D2A6D2A5020B10BC
:100E1300E52B60220526E526C394644019E4F526F4
:100E23000524E524943C400EE4F5240525E52594AA
:070E33003C4003E4F5252219
:03000B00020C5C88
:100C5C00C0E0C0F0C083C082C0D075D000C000C05E
:0D0C6C0001C002C003C004C005C006C007DF
:100C7900758A18758CFC051FE51F7002051EC39443
:100C890014E51E94004009751E00751F00120DDA47
:100C99000521E52170020520C39402E52094004056
:100CA90009752000752100120E570523E5237002EE
:100CB9000522C3940AE52294004009752200752390
:040CC90000120E13F4
:100CCD00D007D006D005D004D003D002D001D0007B
:0B0CDD00D0D0D082D083D0F0D0E03225
:100E9F00EF1FAC0670011E4C600A7D027CEFDCFE7A
:040EAF00DDFC80ECFA
:010EB300221C
:050EBD00E4AF2FF52F4A
:010EC200220D
:100E8900E4FF20B1010F20B0027F0220B2027F03EC
:050E990020B3027F04FC
:010E9E002231
:100DDA00852D2E120E898F2DE52EB40107E52D7073
:100DEA0003752F01E52EB40207E52D7003752F0256
:100DFA00E52EB40307E52D7003752F03E52EB40421
:080E0A0007E52D7003752F04AC
:010E120022BD
:100E3A000909000A0A0A0A0A0A0A0A0C123F065B88
:0C0E4A004F666D7D077F6F0040010801BE
:090EB400AE0574092FF8A6062210
:100D7400E4F580EF14B408005054900D8C75F00322
:100D8400A4C58325F0C58373020DA4020DA8020D2A
:100D9400AC020DB0020DB4020DBC020DC4020DCCA8
:100DA400D2A4800ED2A48012D2A48016D2A4801A17
:100DB400C2A4D2A3D2A28016C2A4D2A3C2A2800E7D
:100DC400C2A4C2A3D2A28006C2A4C2A3C2A27412A5
:060DD4002DF8E6F5802277
:100E570074092508F8E6FD7C00AF08120D74050833
:0A0E6700E508C39409400375080173
:010E7100225E
:100E72005389F0438901758A18758CFCC28DD28C16
:070E8200D2A9D2AFC2B922D0
:10080000020AEAE86480F8E933E83360110460F032
:10081000ED33EC337009E8FCE9FDEAFEEBFF22045E
:1008200060DED3EB9FEA9EE99DE8C2E78CF0C2F759
:1008300095F0400CE8CCF8E9CDF9EACEFAEBCFFB25
:10084000120AB585D0F05804700320D5B3E80470BF
:10085000075002B2D5020AF492D5EC0460F7E4CC5A
:10086000C0E0C398F8603B94186008400DD0E0FBEE
:10087000020ACCE4FBFAC9FC8028E830E406E4C9AB
:10088000FBE4CAFCE830E305E4C9CACBFCE8540742
:100890006010F8C3E913F9EA13FAEB13FBEC13FC4D
:1008A000D8F130F52FC3E49CFCEF9BFFEE9AFEEDF0
:1008B00099FDD0E0FBEF4E4D4C701222DB03020A93
:1008C000F1EC2CFCEF33FFEE33FEED33FDED30E7C2
:1008D000EB020ACCEF2BFFEE3AFEED39FDD0E0FB48
:1008E00050130BBB0003020AF4ED13FDEE13FEEFF1
:0808F00013FFEC13FC020ACC1B
:1008F800EC4D6011E8497017ED33EC3304600DE4FA
:10090800FCFFFEFD22E933E8330470F8020AEA121C
:100918000AB558046009E4CC24815006285009021D
:100928000AF4284003020AF1C0E0EB4A7044B98097
:1009380006D0E0FB020AE0EF4E701CBD8008EBFF1A
:10094800EAFEE9FD80EBE98DF0A4FEE5F00209E19D
:10095800E9CDF9EAFEEBFFEF89F0A4FCE5F0CE89DA
:10096800F0A42EFFE435F0CD89F0A42DFEE435F097
:100978008067EF4E7005BD80D780C3EF8BF0A4ACC5
:10098800F0EE8BF0A42CFCE435F0F8EF8AF0A42C00
:10099800E5F038FCE433CB8DF0A42CFCE5F03BF813
:1009A800EE8AF0A42CFCE5F038F8E433CF89F0A403
:1009B8002CFCE5F038CF3400CE89F0A42FFFE5F009
:1009C8003EFEE433C98DF0A42EFEE5F039CD8AF061
:1009D800A42FFFE5F03EFEE43DFD33D0E0FB5007D9
:1009E8000BBB000F020AF4EC2CFCEF33FFEE33FED6
:0609F800ED33FD020ACC04
:1009FE0074F8CC6480CCC86480C8F58204604FC3A0
:100A0E00EB9FF5F0EA9E42F0E99D42F0E89C45F03E
:100A1E00603C501DE5825FFFE582D313CB5BCBF4C8
:100A2E002B5582FB50280ABA002409B900200880F1
:100A3E001DE5825BFBE582D313CF5FCFF4C3132F8B
:100A4E005582FF50090EBE00050DBD00010CC3EB13
:100A5E009FF5F0EA9E42F0E99D42F0E89C45F06079
:090A6E0007CC4820E701B3EC229B
:100A770075F020800E75F010800575F0087D007EFA
:100A8700007F003392D530D503120AFFEC334010B4
:100A9700EF33FFEE33FEED33FDEC33FCD5F0ED2203
:0E0AA700E5F0247EA2D513CC92E7CDCEFF223F
:100AB500E9D2E7C933E833F892D5EDD2E7CD33EC87
:070AC50033FC5002B2D52200
:100ACC00EC30E7100FBF000C0EBE00080DBD00048B
:100ADC000BEB6014A2D5EB13FCED92E7FD2274FF37
:100AEC00FCFDFEFF22E480F8A2D574FF13FC7D8090
:030AFC00E480EFA4
:03000000020CE807
:0C0CE800787FE4F6D8FD75812F020D2FF7
:0E0AFF00C3E49FFFE49EFEE49DFDE49CFC2208
:100CF400020B0DE493A3F8E493A34003F68001F2FE
:100D040008DFF48029E493A3F85407240CC8C33300
:100D1400C4540F4420C8834004F456800146F6DFCF
:100D2400E4800B0102040810204080900E3AE47E17
:100D3400019360BCA3FF543F30E509541FFEE493C4
:100D4400A360010ECF54C025E060A840B8E493A38B
:100D5400FAE493A3F8E493A3C8C582C8CAC583CAB6
:100D6400F0A3C8C582C8CAC583CADFE9DEE780BE6E
:010E5600009B
:00000001FF
