:0A0AD100434C4F434B004A6179008B
:10089400120AA2120A757BFF7A0A79D17D017F01BF
:1008A400120A177BFF7A0A79D77D0E7F01120A1785
:1008B4007B3A7D037F02120AE57B3A7D067F0212B2
:1008C4000AE5E51AFB7A00750C027D017F02120A23
:1008D40058E51BFB7A00750C027D047F02120A584E
:1008E400E51CFB7A00750C027D077F02120A588012
:0108F400A55E
:03000B000208F5F3
:0408F500C0E0C0D0CF
:1008F900758A18758CFC0519E51970020518C394D9
:10090900E8E51894034024751800751900051CE5DD
:100919001CB43C05051B751C00E51BB43C05051AF8
:0B092900751B00E51AB41803751A00D6
:05093400D0D0D0E0323C
:060AB600C2A58F80D2A74B
:080ABC007F027EEFDEFEDFFC8D
:010AC400220F
:0A0ADB00C2A6120AB6C2A7020ABCA6
:100A3A00CFCDCFCECCCE12083F7C007D0A12083F24
:040A4A00ED2430FF68
:0A0A4E00D2A6120AB6C2A7020ABC23
:100A8C00AE07BE0104ED148006BE0209ED243F44FE
:060A9C0080FF120ADB22BC
:100AA2007F38120ADB7F0C120ADB7F06120ADB7F19
:040AB20001020ADB58
:0A0AE500AC03120A8CAF04020A4EA3
:060A17008B088A09890A20
:100A1D00120A8CE4FDAB08AA09A90A8D8275830020
:0C0A2D00120800FF6006120A4E0D80E95E
:010A3900229A
:0C09E4007F0AEA24FFFDE434FFFC7E00E3
:0809F0008E0D8F0E8C0F8D108F
:1009F8007F017E00E4FBEBC39510E50F6480F8747B
:0E0A08008098500AAC0DAD0E12082D0B80E840
:010A160022BD
:040A58008A0A8B0B70
:100A5C00120A8CAA0CEAD39400400D1209E4AC0AD9
:080A6C00AD0B120A3A1A80EDED
:010A7400225F
:10093900120A8CC3EA64809480400B7F2B120A4E02
:100949008A168B17800E7F2D120A4EC3E49BF5176A
:10095900E49AF516AA15EAD39400400D1209E4ACFD
:0909690016AD17120A3A1A80EDCE
:010972002262
:040973008A1F8B202C
:10097700120A8CAA21EAD3940040297F101209E6B3
:10098700AC1FAD20CFCDCFCECCCE12083FEF540F4A
:10099700FEC3940AEE5004243080022437FF120A63
:0409A7004E1A80D193
:0109AB002229
:0409AC008A248B25E9
:1009B000120A8CAA26EAD394004028EA24FFFDE418
:1009C00034FFFC7F027E001209F0AC24AD25CFCDB0
:1009D000CFCECCCE12083FEF54012430FF120A4E86
:0309E0001A80D2A8
:0109E30022F1
:100A75005389F0438901758A18758CFCC28DD28C17
:070A8500D2A9D2AFC2B922D1
:03000000020AC52C
:0C0AC500787FE4F6D8FD758126020894C5
:10080000BB010CE58229F582E5833AF583E02250AD
:1008100006E92582F8E622BBFE06E92582F8E222F7
:0D082000E58229F582E5833AF583E4932211
:10082D00EF8DF0A4A8F0CF8CF0A428CE8DF0A42EDF
:02083D00FE2299
:10083F00BC000BBE0029EF8DF084FFADF022E4CC9D
:10084F00F875F008EF2FFFEE33FEEC33FCEE9DEC66
:10085F00984005FCEE9DFE0FD5F0E9E4CEFD22EDAC
:10086F00F8F5F0EE8420D21CFEADF075F008EF2FF6
:10087F00FFED33FD4007985006D5F0F222C398FDE7
:05088F000FD5F0EA2284
:00000001FF
