:100C7A00EF1FAC0670011E4C600A7D027CEFDCFEA1
:040C8A00DDFC80EC21
:010C8E002243
:060CA300C2A58F80D2A75C
:080CA9007F027EEFDEFEDFFC9E
:010CB1002220
:0A0CBE00C2A6120CA3C2A7020CA9E3
:100C1000CFCDCFCECCCE120ABA7C007D0A120ABA52
:040C2000ED2430FF90
:0A0C2400D2A6120CA3C2A7020CA96D
:100C6400AE07BE0104ED148006BE0209ED243F4424
:060C740080FF120CBE22FD
:100C8F007F38120CBE7F0C120CBE7F06120CBE7F7B
:040C9F0001020CBE84
:0A0CC800AC03120C64AF04020C240C
:060BED008B088A09890A49
:100BF300120C64E4FDAB08AA09A90A8D827583006F
:0C0C0300120A7BFF6006120C240D80E931
:010C0F0022C2
:0C0BBA007F0AEA24FFFDE434FFFC7E000B
:080BC6008E0D8F0E8C0F8D10B7
:100BCE007F017E00E4FBEBC39510E50F6480F874A3
:0E0BDE008098500AAC0DAD0E120AA80B80E8EC
:010BEC0022E6
:040C2E008A0A8B0B98
:100C3200120C64AA0CEAD39400400D120BBAAC0A4F
:080C4200AD0B120C101A80ED3D
:010C4A002287
:100B0F00120C64C3EA64809480400B7F2B120C2478
:100B1F008A168B17800E7F2D120C24C3E49BF517BA
:100B2F00E49AF516AA15EAD39400400D120BBAAC4D
:090B3F0016AD17120C101A80ED1E
:010B4800228A
:040B49008A1A8B1B5E
:100B4D00120C64AA1CEAD3940040297F10120BBC2E
:100B5D00AC1AAD1BCFCDCFCECCCE120ABAEF540FFF
:100B6D00FEC3940AEE5004243080022437FF120C89
:040B7D00241A80D1E5
:010B81002251
:040B82008A1F8B201B
:100B8600120C64AA21EAD394004028EA24FFFDE46B
:100B960034FFFC7F027E00120BC6AC1FAD20CFCD0A
:100BA600CFCECCCE120ABAEF54012430FF120C2459
:030BB6001A80D2D0
:010BB9002219
:100C4B0050415353574F5244004A6179004F4B2048
:090C5B0000202020004552520047
:10098900120C8F7BFF7A0C794B7D017F01120BEDE5
:100999007BFF7A0C79547D0E7F02120BED12080051
:1009A9008F26E52660F7D3940A5033C3E5239404D0
:1009B900E52294005028AE24AF257C007D0A120A56
:1009C900A88E248F25E52675F00A84E5F02525F5FE
:1009D90025E43524F5240523E52370020522750C49
:1009E90004AB25AA247D017F02120C2EE526640B97
:1009F900704AE52564297004E52464097BFF7006C3
:100A09007A0C795880047A0C79607D0E7F01120B7B
:100A1900EDE4F522F523F524F525750C04AB25AA9B
:100A2900247D017F02120C2E7FD07E07120C7A7B67
:100A3900FF7A0C795C7D0E7F01120BEDE526640CC3
:100A490060030209A6F522F523F524F525750C04A2
:100A5900AB25AA247D017F02120C2E7FD07E0712BE
:100A69000C7A7BFF7A0C795C7D0E7F01120BED020B
:020A790009A6CC
:10080000E4F5087590FFC2932097137FC8FE120C81
:100810007A3097FD7FC87E00120C7A750801209609
:10082000147FC87E00120C7A3097FD7FC87E0012BC
:100830000C7A7508052095147FC87E00120C7A305A
:1008400097FD7F147E00120C7A7508092094147F9E
:10085000C87E00120C7A3097FD7FC87E00120C7A99
:1008600075080D7590FFC2922097147FC87E001204
:100870000C7A3097FD7FC87E00120C7A7508022032
:1008800096147FC87E00120C7A3097FD7FC87E00D8
:10089000120C7A7508062095147FC87E00120C7A17
:1008A0003097FD7FC87E00120C7A75080A209414D8
:1008B0007FC87E00120C7A3097FD7FC87E00120C34
:1008C0007A75080E7590FFC2912097147FC87E003C
:1008D000120C7A3097FD7FC87E00120C7A750803DF
:1008E0002096147FC87E00120C7A3097FD7FC87E58
:1008F00000120C7A7508072095147FC87E00120C30
:100900007A3097FD7FC87E00120C7A75080B209410
:10091000147FC87E00120C7A3097FD7FC87E0012CB
:100920000C7A75080F7590FFC2902097147FC87ECF
:1009300000120C7A3097FD7FC87E00120C7A750881
:10094000042096147FC87E00120C7A3097FD7FC871
:100950007E00120C7A7508082095147FC87E00125C
:100960000C7A3097FD7FC87E00120C7A75080C2037
:1009700094147FC87E00120C7A3097FD7FC87E00E9
:08098000120C7A750810AF0893
:01098800224C
:03000000020CB23D
:0C0CB200787FE4F6D8FD758126020989E0
:100A7B00BB010CE58229F582E5833AF583E0225030
:100A8B0006E92582F8E622BBFE06E92582F8E2227A
:0D0A9B00E58229F582E5833AF583E4932294
:100AA800EF8DF0A4A8F0CF8CF0A428CE8DF0A42E62
:020AB800FE221C
:100ABA00BC000BBE0029EF8DF084FFADF022E4CC20
:100ACA00F875F008EF2FFFEE33FEEC33FCEE9DECE9
:100ADA00984005FCEE9DFE0FD5F0E9E4CEFD22ED2F
:100AEA00F8F5F0EE8420D21CFEADF075F008EF2F79
:100AFA00FFED33FD4007985006D5F0F222C398FD6A
:050B0A000FD5F0EA2206
:00000001FF
