:100800007D607C00E4FF1208777D907C007F011200
:1008100008777D887C007F021208777D447C007F0A
:10082000031208777D887C007F041208777D907C16
:10083000007F051208777D607C007F061208777DB7
:0A084000607C007F0712087780B685
:10089500EF1FAC0670011E4C600A7D027CEFDCFE8A
:0408A500DDFC80EC0A
:0108A900222C
:02084A00AD07F8
:10084C00E4FB74807E00A803088006CEA2E713CEDA
:10085C0013D8F8FFEDF582EF558224FF92B4D2B68F
:0A086C00C2B60BBB08DCD2B5C2B562
:01087600225F
:100877007480A807088002C313D8FCF4F580AF057D
:0E08870012084A7F017E001208957580FF223C
:030000000208AA49
:0C08AA00787FE4F6D8FD75810702080095
:00000001FF
