:03098A00010A005F
:1009410075A0FE12095E12088C8F0BE50B60F7058E
:0D0951000AE50AC3940240EEE4F50A80E9CD
:03000B000208EDFB
:0B08ED00C0E0C0D075D000C000C00704
:1008F800758A18758CFC0509E50970020508C3940A
:10090800F4E50894014029750800750900E50A70A6
:100918000DAFA07801EF08800123D8FDF5A0E50A06
:10092800B4010DAFA07801EF08800103D8FDF5A050
:09093800D007D000D0D0D0E0328D
:10095E005389F0438901758A18758CFCC28DD28C2F
:07096E00D2A9D2AFC2B922E9
:10088C00E4F50C20B1137F14FE12097530B1FD7F15
:10089C00147E00120975750C0120B0147F147E00B3
:1008AC0012097530B0FD7F147E00120975750C02AB
:1008BC0020B2147F147E0012097530B2FD7F147EB5
:1008CC0000120975750C0320B3147F147E001209F5
:1008DC007530B3FD7F147E00120975750C04AF0CD6
:0108EC0022E9
:10097500EF1FAC0670011E4C600A7D027CEFDCFEA9
:04098500DDFC80EC29
:01098900224B
:03000000020800F3
:0C080000787FE4F6D8FD75810C020847F3
:10080C00020941E493A3F8E493A34003F68001F2B8
:10081C0008DFF48029E493A3F85407240CC8C333ED
:10082C00C4540F4420C8834004F456800146F6DFBC
:10083C00E4800B010204081020408090098AE47EB9
:10084C00019360BCA3FF543F30E509541FFEE493B1
:10085C00A360010ECF54C025E060A840B8E493A378
:10086C00FAE493A3F8E493A3C8C582C8CAC583CAA3
:10087C00F0A3C8C582C8CAC583CADFE9DEE780BE5B
:01098D000069
:00000001FF
