:0E0BDC004D41545249584B4559004A61790029
:100AC800120BB97BFF7A0B79DC7D047F01120B30A6
:100AD8007BFF7A0B79E67D0E7F02120B301208003D
:100AE8008F22E52260F7FB7A00750C027D087F02F1
:050AF800120B7180E803
:100BA400EF1FAC0670011E4C600A7D027CEFDCFE78
:040BB400DDFC80ECF8
:010BB800221A
:060BCD00C2A58F80D2A733
:080BD3007F027EEFDEFEDFFC75
:010BDB0022F7
:0A0BF600C2A6120BCDC2A7020BD35A
:100B5300CFCDCFCECCCE1209C87C007D0A1209C8F6
:040B6300ED2430FF4E
:0A0B6700D2A6120BCDC2A7020BD3D9
:100B8E00AE07BE0104ED148006BE0209ED243F44FB
:060B9E0080FF120BF6229D
:100BB9007F38120BF67F0C120BF67F06120BF67FAD
:040BC90001020BF624
:0A0C0000AC03120B8EAF04020B6769
:060B30008B088A09890A06
:100B3600120B8EE4FDAB08AA09A90A8D8275830003
:0C0B4600120989FF6006120B670D80E9A0
:010B52002280
:0C0AFD007F0AEA24FFFDE434FFFC7E00C9
:080B09008E0D8F0E8C0F8D1074
:100B11007F017E00E4FBEBC39510E50F6480F87460
:0E0B21008098500AAC0DAD0E1209B60B80E89C
:010B2F0022A3
:040B71008A0A8B0B56
:100B7500120B8EAA0CEAD39400400D120AFDAC0AA2
:080B8500AD0B120B531A80EDB9
:010B8D002245
:100A1D00120B8EC3EA64809480400B7F2B120B6700
:100A2D008A168B17800E7F2D120B67C3E49BF5176B
:100A3D00E49AF516AA15EAD39400400D120AFDACFE
:090A4D0016AD17120B531A80EDCF
:010A5600227D
:040A57008A1A8B1B51
:100A5B00120B8EAA1CEAD3940040297F10120AFFB6
:100A6B00AC1AAD1BCFCDCFCECCCE1209C8EF540FE5
:100A7B00FEC3940AEE5004243080022437FF120B7D
:040A8B00671A80D195
:010A8F002244
:040A90008A1F8B200E
:100A9400120B8EAA21EAD394004028EA24FFFDE435
:100AA40034FFFC7F027E00120B09AC1FAD20CFCDBA
:100AB400CFCECCCE1209C8EF54012430FF120B67FD
:030AC4001A80D2C3
:010AC700220C
:10080000E4F5087590FFC2932097137F14FE120B36
:10081000A43097FD7F147E00120BA475080120966A
:10082000147F147E00120BA43097FD7F147E0012FB
:100830000BA47508052095147F147E00120BA430BC
:1008400097FD7F147E00120BA47508092094147F75
:10085000147E00120BA43097FD7F147E00120BA4AF
:1008600075080D7590FFC2922097147F147E0012B8
:100870000BA43097FD7F147E00120BA47508022094
:1008800096147F147E00120BA43097FD7F147E0017
:10089000120BA47508062095147F147E00120BA479
:1008A0003097FD7F147E00120BA475080A20941463
:1008B0007F147E00120BA43097FD7F147E00120B74
:1008C000A475080E7590FFC2912097147F147E00C6
:1008D000120BA43097FD7F147E00120BA475080341
:1008E0002096147F147E00120BA43097FD7F147E97
:1008F00000120BA47508072095147F147E00120BBC
:10090000A43097FD7F147E00120BA475080B209471
:10091000147F147E00120BA43097FD7F147E00120A
:100920000BA475080F7590FFC2902097147F147E5A
:1009300000120BA43097FD7F147E00120BA47508E3
:10094000042096147F147E00120BA43097FD7F14B0
:100950007E00120BA47508082095147F147E0012E7
:100960000BA43097FD7F147E00120BA475080C2099
:1009700094147F147E00120BA43097FD7F147E0028
:08098000120BA4750810AF086A
:01098800224C
:03000000020BEA06
:0C0BEA00787FE4F6D8FD758122020AC86D
:10098900BB010CE58229F582E5833AF583E0225023
:1009990006E92582F8E622BBFE06E92582F8E2226D
:0D09A900E58229F582E5833AF583E4932287
:1009B600EF8DF0A4A8F0CF8CF0A428CE8DF0A42E55
:0209C600FE220F
:1009C800BC000BBE0029EF8DF084FFADF022E4CC13
:1009D800F875F008EF2FFFEE33FEEC33FCEE9DECDC
:1009E800984005FCEE9DFE0FD5F0E9E4CEFD22ED22
:1009F800F8F5F0EE8420D21CFEADF075F008EF2F6C
:100A0800FFED33FD4007985006D5F0F222C398FD5C
:050A18000FD5F0EA22F9
:00000001FF
