:02084E00AD07F4
:10085000E4FB74807E00A803088006CEA2E713CED6
:1008600013D8F8FFEDF582EF558224FF92B4D2B68B
:0A087000C2B60BBB08DCD2B5C2B55E
:01087A00225B
:10087B007480A807088002C313D8FCF4F580AF0579
:0E088B0012084E7F017E001208997580FF2230
:10080000C2B6C2B57D607C00E4FF12087B7D907C9F
:10081000007F0112087B7D887C007F0212087B7DAF
:10082000447C007F0312087B7D887C007F041208D3
:100830007B7D907C007F0512087B7D607C007F06BD
:0E08400012087B7D607C007F0712087B80B66B
:10089900EF1FAC0670011E4C600A7D027CEFDCFE86
:0408A900DDFC80EC06
:0108AD002228
:030000000208AE45
:0C08AE00787FE4F6D8FD75810702080091
:00000001FF
